:020000040800F2
:10000000B80B002089010008931D0008EB180008B8
:10001000911D00087103000805260008000000007B
:100020000000000000000000000000003322000873
:10003000730300080000000019220008692300086B
:10004000A3010008A3010008A3010008A301000800
:10005000A3010008A3010008A3010008A3010008F0
:10006000A3010008A3010008A3010008A3010008E0
:10007000A3010008A3010008A3010008A3010008D0
:10008000A3010008A301000891020008A3010008D1
:10009000A3010008A3010008A3010008A3010008B0
:1000A000A3010008A3010008A3010008A3010008A0
:1000B000A3010008A3010008A3010008A301000890
:1000C000A3010008A3010008A3010008A301000880
:1000D000A3010008A3010008F9250008A3010008F6
:1000E000A3010008A3010008A301000800F002F822
:1000F00000F03AF80AA090E8000C82448344AAF188
:100100000107DA4501D100F02FF8AFF2090EBAE885
:100110000F0013F0010F18BFFB1A43F0010318473B
:10012000E45B0000045C0000103A24BF78C878C18A
:10013000FAD8520724BF30C830C144BF04680C60ED
:10014000704700000023002400250026103A28BF35
:1001500078C1FBD8520728BF30C148BF0B60704739
:100160001FB51FBD10B510BD00F058F81146FFF7C0
:10017000F7FF02F0DFFA00F076F803B4FFF7F2FFC2
:1001800003BC00F07DF8000009488047094800479B
:10019000FEE7FEE7FEE7FEE7FEE7FEE7FEE7FEE737
:1001A000FEE7FEE704480549054A064B7047000094
:1001B000E5230008ED000008B8050020B80B00207A
:1001C000B8070020B80700204FF0000200B5134622
:1001D00094469646203922BFA0E80C50A0E80C5067
:1001E000B1F12001BFF4F7AF090728BFA0E80C5018
:1001F00048BF0CC05DF804EB890028BF40F8042B11
:1002000008BF704748BF20F8022B11F0804F18BF7D
:1002100000F8012B7047704770477047754600F033
:100220002BF8AE4605006946534620F00700854688
:1002300018B020B5FFF7B6FFBDE820404FF000062C
:100240004FF000074FF000084FF0000B21F00701BE
:10025000AC46ACE8C009ACE8C009ACE8C009ACE801
:10026000C0098D46704710B50446AFF300802046A4
:10027000BDE81040FFF781BF0048704758050020D7
:1002800001491820ABBEFEE72600020070470000BF
:10029000014800F063B900009804002070B50446DE
:1002A00000688168C943C90717D1816821F001013D
:1002B000816000F0FFFC05460AE000BF00F0FAFC98
:1002C000401B022804D920688068C043C00706D0BC
:1002D00020688068C043C007F0D0002070BDA06ACD
:1002E00040F01000A062E06A40F00100E0620120EE
:1002F00070BD0000F8B500260446009600688168CD
:10030000C943C9072DD0816841F0010181601648B9
:1003100016490068B0FBF1F000E0401E0090002894
:10032000FBD100F0C7FC054616E000BF00F0C2FCA0
:10033000401B022810D920688068C043C0070BD03A
:10034000A06A40F01000A062E06A40F00100E062A4
:1003500084F824600120F8BD20688068C043C0078D
:10036000E4D10020F8BD00001400002040420F003E
:10037000FEE7704772B6FEE7F8B500250446009523
:1003800090F8240001280BD0012084F82400204696
:10039000FFF784FF2046FFF7ADFF060002D050E0D4
:1003A0000220F8BDA06A20F4885040F00200A0624C
:1003B000022000F01DFD25490968B1FBF0F0400066
:1003C00000E0401E00900028FBD12068816841F0C9
:1003D0000801816000F06EFC074608E000F06AFC4E
:1003E000C01B0A2803D920688068000715D420683C
:1003F00080680007F2D42068816841F004018160C0
:1004000000F058FC074612E000F054FCC01B0A281C
:100410000DD920688068400709D5A06A20F0020045
:1004200040F01000A06284F824500120F8BD20683C
:1004300080684007E8D4A06A20F0020040F0010084
:10044000A06284F824503046F8BD0000140000205B
:1004500070470000F8B50024009490F82420254649
:10046000012A12D0012280F824204A681F23072A7B
:100470000DD20668776B521E02EB820293409F43B7
:100480000B6893401F43776319E00220F8BD0668AC
:100490000D2A0AD2376BD21F02EB820293409F4390
:1004A0000B6893401F43376309E0F76A0D3A02EB8C
:1004B000820293409F430B6893401F43F7620A6890
:1004C000072306680A2A0AD3F7680A3A02EB4202AF
:1004D00093409F438B6893401F43F76008E0376960
:1004E00002EB420293409F438B6893401F43376166
:1004F0000A68102A01D0112A20D1124B02689A42B0
:1005000017D193681B0219D4936843F400039360D6
:100510000968102912D10C490C4A0968B1FBF2F1A3
:1005200001EB8101490000E0491E00910029FBD147
:1005300004E0816A41F020018162012480F82450A6
:100540002046F8BD002401401400002040420F0066
:100550007047806A70470068C06C704770B5044689
:10056000006806684568A90625D5B10723D5A16AA4
:10057000C90603D4A16A41F40071A1628168C1F384
:100580004241072910D1217B71B9416821F0200136
:100590004160A06A20F48070A062A06AC00403D405
:1005A000A06A40F00100A0622046FFF7D1FF216859
:1005B0006FF01200086028062ED570072CD5A06AAF
:1005C000C00603D4A06A40F40050A062206881688D
:1005D000C1F30231072909D04168490515D4816862
:1005E000C1F34241072910D1217B71B9416821F043
:1005F00080014160A06A20F48050A062A06AC0051A
:1006000003D4A06A40F00100A0622046FFF720FF5B
:1006100021686FF00C00086068060CD5F0070AD05E
:10062000A06A40F48030A062204600F093F8216870
:100630006FF00100086070BD2DE9F0414FF0000738
:1006400004003D467ED0A06A002628B9E66284F800
:100650002460204600F080F82046FFF71FFEA16AC4
:10066000C90600D420B1A06A40F01000A06269E081
:10067000A16A21F4885141F00201A1626268E16936
:10068000237B0A4347EA43010A43A1684FF480777A
:10069000B94209D0012907D05FF0000194F814C0D5
:1006A000BCF1010F02D00AE03946F7E7F3B1A36AC3
:1006B00043F02003A362E36A43F00103E36223688B
:1006C000D3F804C02CF4694C4CEA010CC3F804C004
:1006D00021688B68DFF870C003EA0C0313438B605A
:1006E000A168B9420BD0012909D00CE0DFF85CC049
:1006F000A3690CEB43330B4343F40061DFE7218A2A
:100700000D05A5F580152168CB6A23F470032B43F2
:10071000CB62216889680E4B1940914208D1E6628C
:10072000A16A21F0020141F00101A162BDE8F0815E
:10073000A06A20F0020040F01000A062E06A40F0E1
:100740000100E0620120F1E7FDF7E1FF00E0FFFFBB
:10075000FE0E1FFF7047000000B585B0002100911C
:1007600001910291039100681249884220D11248F8
:10077000816941F400718161816901F40071049122
:10078000816941F0040181618069694600F00400DB
:1007900004900120009003200190084800F090F997
:1007A00000221146122000F0F1FA122000F0E0FAC7
:1007B00005B000BD002401400010024000080140C7
:1007C0002DE9F84300270D460446009700F072FA21
:1007D000804620688168C90508D5A06A40F02000DD
:1007E000A06284F824700120BDE8F8834168C9053F
:1007F00003D4C06A10F4700F2AD0022000F0F8FA77
:100800003B490968B1FBF0F62068036939490B429E
:100810004FEA61014FEAA1121FD1C3684FEA611C80
:1008200013EA0C0F19D103690B4225D1C06810429D
:1008300022D1142023E0681C0AD02DB100F03AFA2E
:10084000A0EB0800A84203D920680068800725D5DE
:10085000206800688007EED52DE003690B4202D1C5
:10086000C168114206D0026923490A4206D1C06814
:10087000084203D1542002E0292000E0FC20464336
:10088000009816E0681C11D02DB100F013FAA0EB0F
:100890000800A8420AD90098B04207D2A06A40F0E6
:1008A0000400A06284F8247003209DE70098401C97
:1008B0000090B042E6D321686FF012000860A06A91
:1008C00040F40070A06220688068C0F342400728AE
:1008D0000CD1207B50B9A06A20F48070A062A06A7D
:1008E000C00403D4A06A40F00100A06200207BE7AE
:1008F00014000020244992244992240070B5044633
:1009000090F8240001280DD0012084F8240020460E
:10091000FFF7F0FC02004FF0000005D084F824003F
:10092000104670BD022070BDA16A40F201239943B8
:1009300041F48071A1621F4D23681F49AB4218D159
:100940000E6816F4702F14D0A66A46F48016A662BC
:100950000E68760505D5A66A26F4005646F480563C
:10096000A662A66AF6040AD5E66A26F00606E662DC
:1009700006E0A66A26F48016A6625E68E9E7E062F1
:1009800084F824006FF00200186020688368C3F3C5
:100990004243072B05D1A84208D1096811F4702FF2
:1009A00004D0816841F480118160B9E7816841F425
:1009B000A001F9E7002801400424014010B590F897
:1009C00021100022022905D00421816380F8202013
:1009D000012010BD01680B6823F00E030B60016855
:1009E0000B6823F001030B6090F84030C46B0121C9
:1009F00001FA03F3636080F8211080F8202010468C
:100A000010BD000010B590F821100024022903D079
:100A10000421816301243DE001680A6822F00E028E
:100A20000A6001680A6822F001020A601A4A016835
:100A3000914201D1012121E0174A1432914201D1A2
:100A400010211BE0144A2832914201D1891515E08A
:100A5000114A3C32914201D189140FE00E4A5032C2
:100A6000914202D14FF4803108E00B4A6432914246
:100A700002D14FF4801101E04FF08071064A083A2C
:100A80005160012180F82110002180F82010416B75
:100A900001B18847204610BD0800024070B50446E9
:100AA00000F008F90546601C02D0044800780444B0
:100AB00000F000F9401BA042FAD370BD08000020EE
:100AC0002DE9F84FDFF8B8910024A9F1040B234673
:100AD0000F2709F1040AABF1040EC9E00125A54076
:100AE0002A40AA427DD1674ED1F804C0ACEB06087B
:100AF000B44532D014DCBCF1030F3AD009DCBCF1B0
:100B0000000F2AD0BCF1010F1CD0BCF1020F31D173
:100B10001DE0BCF1110F17D0BCF1120F2AD119E062
:100B2000B8F5881F19D006DCB8F5803F15D0B8F5A8
:100B3000801F1FD111E0B8F5001F0ED0B8F5041FBB
:100B400018D10AE0CB6815E0CB681B1D12E0CB681A
:100B500008330FE0CB680C330CE08B682BB1012B12
:100B60004FF0080303D0456104E0042302E005616F
:100B700000E00023FF2A01D8064601E000F1040648
:100B80004FEA840501D9A5F12005D6F8008007FABF
:100B900005FC28EA0C0803FA05F548EA0508C6F83A
:100BA00000804D68ED0062D5374DAE6946F0010614
:100BB000AE61AD6924F0030605F001050095334DE3
:100BC00006EB050CDCF80850A607360F07FA06F806
:100BD00025EA0805DFF8B880404503D14FF000084A
:100BE00017E044E0DFF8AC80404502D14FF0010847
:100BF0000FE0DFF8A480404502D14FF0020808E082
:100C0000DFF89880404502D14FF0030801E04FF033
:100C1000040808FA06F848EA0508CCF808804D6888
:100C2000D9F80060ED024D4601D5164300E0964329
:100C30002E604D68DAF80060AD02554601D51643C6
:100C400000E096432E604D68DBF80060AD035D4622
:100C500001D5164300E096432E604D68DEF8006033
:100C6000ED03754601D5164300E096432E60641CE3
:100C70000D682A46E5407FF431AFBDE8F88F0000EB
:100C80000804014000001110001002400000014063
:100C900000080140000C0140001001400014014018
:100CA0008068084000D0012070470AB10161704798
:100CB0000904FBE701488068704700000800002035
:100CC0000248816802781144816070470800002062
:100CD000074810B5016841F010010160032000F0E1
:100CE00075F80F2000F006F800F024F8002010BD81
:100CF0000020024070B50D4D04464FF47A712878FB
:100D0000B1FBF0F00A490968B1FBF0F000F0A4FB78
:100D100048B9102C07D200222146501E00F036F8A8
:100D200000206C6070BD012070BD00000800002034
:100D3000140000200C4808B5816941F0010181616F
:100D4000816901F001010091C16941F08051C161E7
:100D5000C06900F0805000900448416821F0E061D3
:100D600041F00071416008BD0010024000000140E8
:100D7000002809DB00F01F0201219140400980009A
:100D800000F1E020C0F8001170470000F0B40E4BF5
:100D90001B680C46C3F30223C3F10705042D00D9D9
:100DA0000425191D072901D2002300E0DB1E0126BE
:100DB00006FA05F1491E214099409E40761E1640D4
:100DC0003143F0BC01F01FBC0CED00E0064900F01F
:100DD000070208684FF6FF03184040EA0220034A62
:100DE00010430860704700000CED00E00000FA05B9
:100DF00010B501460020234C012922D0022939D008
:100E000010291DD161682268D20119D51E48C1F38D
:100E10008342C903805C0AD561681B4AC1F3404123
:100E2000921E515C194AB2FBF1F1484301E01849A6
:100E300048436168490203D440000321B0FBF1F04C
:100E400010BD226AC2F30121012903D1920701D505
:100E5000C80310BD022905D1626A920702D549F67E
:100E6000404010BD0329FCD121688903F9D54FF218
:100E7000244010BD00F02AF96168C1F38131491C9A
:100E80004900DBE700100240DC5C000800127A0039
:100E900000093D002DE9F84305460078354CC007B0
:100EA00054D0E0690026C00008D4E06940F08050CA
:100EB000E061E069012600F0805000902E48016852
:100EC000C90512D40168804641F480710160FFF7C2
:100ED000F1FE074605E000BFFFF7ECFEC01B6428EB
:100EE00023D8D8F80000C005F6D5206A10F4407069
:100EF00021D0A98801F4407181421CD0206A1F4989
:100F0000012220F440700A6000220A602062C007BB
:100F100011D0FFF7CFFE074641F2883808E000BF46
:100F2000FFF7C8FEC11B414502D90320BDE8F88385
:100F3000206A8007F4D5206A696820F4407008436D
:100F400020621EB1E06920F08050E06128788007BF
:100F500005D56068A96820F440400843606028789F
:100F6000C00605D56068E96820F480000843606029
:100F70000020DBE7001002400070004040044242C5
:100F80002DE9F0470F46050061D0434E306800F070
:100F90000700B84209D2306820F0070038433060BB
:100FA000306800F00700B84251D128683B4C8107F7
:100FB00012D5400703D5606840F4E060606028788F
:100FC000000703D5606840F4605060606068A968FD
:100FD00020F0F000084360602878C00728D06868D7
:100FE000012810D02168022810D0890700292EDAA4
:100FF000616821F0030101436160FFF75BFE8046F9
:1010000041F288390DE021688903EFE78901EDE7B6
:10101000FFF750FEA0EB0801494502D90320BDE8C7
:10102000F0876068696800F00C00B0EB810FEFD1C9
:10103000306800F00700B8420BD9306820F0070094
:1010400038433060306800F00700B84201D001201A
:10105000E5E72878400705D56068E96820F4E06096
:10106000084360602878000706D56068296920F485
:10107000605040EAC100606000F038F86168084ADA
:10108000C1F30311515CC840064908600648006876
:10109000FFF730FE0020C2E70020024000100240AF
:1010A000EC5C0008140000200C00002004480549F6
:1010B00000684968044AC1F30221515CC840704786
:1010C0001400002000100240FC5C000804480549A0
:1010D00000684968044AC1F3C221515CC8407047A6
:1010E0001400002000100240FC5C00080E4A516809
:1010F0000E4801F00C03042B11D0082B0FD10C4823
:10110000C1F38343C903C05C0AD55168084AC1F3DF
:101110004041921E515C054A5043B0FBF1F07047CC
:1011200004494843704700000010024000127A0052
:10113000CA5C000800093D002DE9F84F040070D09A
:101140002078C04DC00749D06868C0F381000128ED
:1011500007D06868C0F38100022809D16868C0031D
:1011600006D52868800339D560680028E7D035E0C7
:101170006068B0F5803F0BD010B1B0F5A02F11D052
:10118000286820F480302860286820F4802002E05D
:10119000286840F480302860606890B1FFF78AFDCD
:1011A00006460AE0286840F480202860F0E700BF87
:1011B000FFF780FD801B642873D828688003F7D56B
:1011C0000CE0FFF777FD064605E000BFFFF772FD74
:1011D000801B6428F0D828688003F7D420789A4EC2
:1011E00080074FF001094FF0000839D5686810F00A
:1011F0000C0F07D06868C0F38100022809D1686825
:10120000C00306D42868800714D52069012808D1B6
:1012100010E02069B0B1C6F80090FFF74BFD07461B
:1012200005E00AE1FFF746FDC01B0228C4D8286884
:101230008007F7D52868616920F0F80040EAC1000E
:1012400028600DE0C6F80080FFF734FD074604E093
:10125000FFF730FDC01B022823D828688007F7D489
:10126000207800072CD57948A169D9B1C0F8009041
:10127000FFF720FD074604E0FFF71CFDC01B022816
:101280000FD8686A8007F7D571484FF4FA510068A3
:10129000B0FBF1F0009000BF0098411E0091FAD21F
:1012A0000EE080E0C0F80080FFF704FD074604E090
:1012B000FFF700FDC01B022875D8686A8007F7D4C5
:1012C0002078400760D5E8690027C00008D4E869A5
:1012D00040F08050E861E869012700F080500090FC
:1012E0005C480168C90513D40168834641F48071E4
:1012F0000160FFF7DFFC824606E000BFFFF7DAFC83
:10130000A0EB0A0064284ED8DBF80000C005F5D534
:10131000E06801280AD008B1052813D0286A20F017
:1013200001002862286A20F0040002E0286A40F0E8
:1013300001002862E06841F2883B98B1FFF7BAFCEF
:1013400082460BE0286A40F004002862EEE700BF06
:10135000FFF7B0FCA0EB0A0159455AD8286A80076C
:10136000F6D50CE0FFF7A6FC824605E0FFF7A2FCED
:10137000A0EB0A0159454CD8286A8007F6D41FB162
:10138000E86920F08050E861E06988B36968C1F3DA
:101390008101022944D00228C6F8608004D0FFF7FA
:1013A00089FC044638E034E0FFF784FC074604E09B
:1013B000FFF780FCC01B02282BD828688001F7D4D7
:1013C000206AB0F5803F05D16868A16820F400303C
:1013D00008436860D4E908010843696821F474117E
:1013E00008436860C6F86090FFF764FC044606E0B6
:1013F00025E000BFFFF75EFC001B022809D8286823
:101400008001F7D51BE000BFFFF754FC001B02284A
:1014100002D90320BDE8F88F28688001F4D40EE0DB
:101420000128F7D06868226A00F48031914204D123
:10143000616A00F47010884201D00120EAE70020C0
:10144000E8E70000001002400000424280044242EF
:10145000140000200070004010B5401EB0F1807FE5
:1014600001D3012010BD4FF0E02460610F2160170F
:1014700001F0C9F80020A06107202061002010BD04
:1014800070477047F8B5016804460868CA684B6938
:1014900010F00F0F4FF0000559D003F0010602F4D1
:1014A0009077374365D0C10705D0D10503D5616C6E
:1014B00041F001016164410705D5D90703D0616C92
:1014C00041F002016164810705D5D90703D0616C41
:1014D00041F004016164010707D502F020013143A6
:1014E00003D0616C41F008016164616C00293AD05D
:1014F000800604D5900602D5204600F0A3FF2068A0
:101500004069616CC0F38010090700D460B32046C5
:1015100000F071FF20684069400621D52068143032
:1015200050E8001F21F0400140E80012002AF5D1E8
:10153000E06BA8B16D494163E06BFFF763FA0028E7
:1015400011D0E06B416B01B0BDE8F0400847830665
:101550000FD593060DD52046BDE8F84000F072BFC8
:101560002046FFF78EFFF8BD2046FFF78AFF65642F
:10157000F8BD266B2023012E7CD1C6067AD5D6066F
:1015800078D508684868009048694FF00206400620
:1015900040D5E16B086840680004000CE8D0A28DDB
:1015A0008242E5D9E085886920282DD020680C305A
:1015B00050E8001F21F4807140E80012002AF5D1A4
:1015C0002068143050E8001F21F0010140E80012AB
:1015D000002AF5D12068143050E8001F21F04001A6
:1015E00040E80012002AF5D184F8423025632068D3
:1015F0000C3050E8001F21F0100140E80012002AD2
:10160000F5D1E06BFFF7DAF96663A08DE18D401A42
:1016100081B22AE0A08DE18D401A81B2E08D0028D0
:10162000A6D00029A4D022680C3252E8000F20F482
:10163000907042E80007002FF5D12068143050E880
:10164000002F22F0010240E80027002FF5D184F896
:101650004230256320680C3050E8002F22F0100241
:1016600040E80023002BF5D166632046FFF708FF12
:10167000F8BDFFE705062BD5150629D594F84100DE
:101680002128F5D1A068B0F5805F01D12069B0B103
:10169000206A411C2162216800784860E08C401E6D
:1016A0000004000CE084E3D12068C16821F08001CF
:1016B000C1602068C16841F04001C160D8E7206A7C
:1016C0000088C0F308004860206A801C2062E5E7BB
:1016D0004006CDD55006CBD5CA68204622F0400240
:1016E000CA6084F8413000F0FFF8C1E7E723000842
:1016F00070B5040004D094F84100002510B106E054
:10170000012070BD84F84050204600F023F82420CA
:1017100084F841002068C16821F40051C16020466E
:1017200000F0F2FE2068016921F490410161206817
:10173000416921F02A0141612068C16841F40051EA
:10174000C1606564202084F8410084F8420065632C
:10175000002070BD70B586B00024009401940294FE
:1017600003942B4E03682B49022003222A4DB342D7
:1017700021D18B6943F480438B618B6903F48043EF
:1017800004938B6943F004038B618969039201F030
:10179000040104910102CDE9001069462846FFF7D3
:1017A0008FF92815CDE90004694628460294FFF711
:1017B00087F906B070BD194EB342FAD1CB6943F434
:1017C0000033CB61CB6903F4003304938B6943F09E
:1017D00004038B618969039201F0040104910421DF
:1017E000CDE9001069462846FFF76AF90820CDE9DF
:1017F0000004694628460294FFF762F90022114668
:101800002620FFF7C3FA2620FFF7B2FAD1E700003F
:101810000038014000100240000801400044004030
:1018200090F84230202B01D00220704721B11AB12C
:101830000023036300F0C4BE012070472DE9F0418E
:1018400000682349884240D122484FF48073224ADD
:10185000017822489E01224CDD0141390B2907D233
:10186000DFE801F006090B0E1012141F21232A00D5
:1018700000F042FD0EE0012000E00220107009E0BF
:101880000320FBE70420F9E7012200E000221946CB
:10189000FFF70BFABDE8F04101220E491148FFF7AE
:1018A000BFBF0520EAE70620E8E7012231462046CF
:1018B000FFF7FBF9002205E0012231462046FFF741
:1018C000F4F9012229462046E2E7BDE8F081000054
:1018D00000440040060000200000002000080140F5
:1018E000000C0140100500207047FEE770B5104D58
:1018F0004FF42074012221462846FFF7D6F96610DE
:10190000012231462846FFF7D0F900F04BF80022BB
:1019100021462846FFF7C9F900F044F80022314675
:101920002846FFF7C2F9BDE8704000F03BB8000060
:10193000000C014070B50B4D4FF42074002221467D
:101940002846FFF7B2F9012261102846FFF7ADF9EA
:1019500000F028F821462846BDE870400122FFF734
:10196000A4B90000000C014070B50D4C01224FF4E9
:1019700020712046FFF799F900F014F84FF4A07594
:10198000012229462046FFF790F900F00BF80022CB
:1019900029462046FFF789F9BDE8704000F002B8FB
:1019A000000C01400320401EC0B2FCD27047000072
:1019B0002DE9F04102463F4B40483F4C9E14DF1456
:1019C00001784FF40045012A01D03AB10BE009B982
:1019D00008210170C9B2491E017004E0491CC9B256
:1019E0000170082926D011F0FF0025D001282AD047
:1019F000022835D003283AD004283FD0052849D002
:101A0000062853D0072853D1012208211846FFF792
:101A10004CF9002229462046FFF747F900223146BB
:101A20002046FFF742F9012239462046BDE8F04141
:101A3000FFF73BB900210170012208211846FFF78A
:101A400034F9002201E001220BE029462046FFF78D
:101A50002CF9002231462046FFF727F90022E3E760
:101A6000002208211846FFF720F90122EDE70022A5
:101A700008211846FFF719F9012205E00022082184
:101A80001846FFF712F9002229462046FFF70DF904
:101A90000122DFE7002208211846FFF706F900229D
:101AA00029462046FFF701F90122B8E70022ACE7FA
:101AB000BDE8F081000C0140000801400400002056
:101AC00010B53E4902463C4C4878012A01D03AB153
:101AD0000BE008B908204870C0B2401E487004E00E
:101AE000401CC0B24870082826D010F0FF0025D056
:101AF00001282AD0022835D003283AD004283FD024
:101B0000052849D0062853D0072853D10122802127
:101B10002046FFF7CAF8002240212046FFF7C5F80B
:101B2000002220212046FFF7C0F801222046BDE810
:101B300010401021FFF7B9B8002048700122802121
:101B40002046FFF7B2F8002201E001220BE040211D
:101B50002046FFF7AAF8002220212046FFF7A5F82B
:101B60000022E3E7002280212046FFF79EF80122B1
:101B7000EDE7002280212046FFF797F8012205E0DB
:101B8000002280212046FFF790F8002240212046C5
:101B9000FFF78BF80122DFE7002280212046FFF7C4
:101BA00084F8002240212046FFF77FF80122B8E7A1
:101BB0000022ACE710BD0000000C01400400002032
:101BC0003EB5002410480094019402940D498460AD
:101BD000016001250573047505614FF460214460BF
:101BE000C161FEF729FD08B1FEF7C4FBCDE9004550
:101BF000694605480294FEF72DFC002801D0FEF747
:101C0000B9FB3EBD00240140980400202DE9F043BB
:101C100085B000263E48009601960296039681699B
:101C200041F010018161816901F010010491816925
:101C300041F020018161816901F0200104918169F5
:101C400041F004018161816901F00401049181691D
:101C500041F00801816180692E4F00F008004FF4C7
:101C600000540490002221463846FFF71EF8DFF8A2
:101C7000A880002249F602114046FFF716F8DFF867
:101C80009C9001224FF470414846FFF70EF8002265
:101C90004FF47E714846FFF708F8009401240225AE
:101CA000694638460194CDE90245FEF709FF4FF435
:101CB0008170CDE9000469464046CDE90245FEF752
:101CC000FFFE40F60240CDE9000669460294484610
:101CD000FEF7F6FE4FF47340CDE90004694648462E
:101CE000CDE90245FEF7ECFE4FF418408DE83100D7
:101CF000694640460395FEF7E3FEF8208DE8310083
:101D0000694648460395FEF7DBFE05B0BDE8F08363
:101D1000001002400010014000080140000C01408A
:101D20000C4810B50A4901604FF41651416000217A
:101D300081600C22C160C0E904128161C161FFF7BA
:101D4000D7FC002803D0BDE81040FEF713BB10BD40
:101D500000380140C80400200C4810B50A49016051
:101D60004FF416514160002181600C22C160C0E92E
:101D700004128161C161FFF7BBFC002803D0BDE8FC
:101D80001040FEF7F7BA10BD0044004010050020D7
:101D9000FEE7FEE730B40021084B0A465FF0000082
:101DA00003EBC004401CC0B262548028F8D3491C25
:101DB000C9B20829F2D330BC00F0B0B81800002036
:101DC00030B1012807D100215FF0A70000F009BA67
:101DD0000021A620FAE7704710B558B1012810D1AC
:101DE0000021C02000F0FDF90021A020BDE8104036
:101DF00000F0F7B90021C82000F0F3F90021A1207C
:101E0000F4E710BD30B5CC0801F0070301259D4073
:101E1000EBB2064D05EBC005C808285C0AB11843B3
:101E200002E063EA0000C043285530BD18000020DE
:101E300010B50021AE2000F0D4F90021084600F0D2
:101E4000D0F90021102000F0CCF90021402000F052
:101E5000C8F90021812000F0C4F90021CF2000F052
:101E6000C0F90021A12000F0BCF90021C82000F039
:101E7000B8F90021A62000F0B4F90021A82000F054
:101E8000B0F900213F2000F0ACF90021D32000F090
:101E9000A8F90021084600F0A4F90021D52000F09F
:101EA000A0F90021802000F09CF90021D92000F049
:101EB00098F90021F12000F094F90021DA2000F0D7
:101EC00090F90021122000F08CF90021DB2000F0B5
:101ED00088F90021302000F084F90021202000F052
:101EE00080F90021022000F07CF900218D2000F013
:101EF00078F90021142000F074F9FFF74BFF00215E
:101F0000BDE81040AF2000F06CB90246012000E0AF
:101F10005043491EC9B2FBD27047000070B5184E3D
:101F2000002400BF04F1B000C0B2002100F059F954
:101F30000021084600F055F90021102000F051F969
:101F4000FFF7D4FC782000F075F9FFF70DFD402075
:101F500000F070F9FFF708FD5FF0000506EBC50023
:101F6000005D00F067F9FFF7FFFC6D1CEDB2802DFE
:101F7000F4D3FFF7DFFC641CE4B2082CD2D370BDAD
:101F8000180000202DE9FC4F1C460E4682468B4669
:101F90000190082B0DD0600700D0012000EBD40089
:101FA00061084843C0B28146203AD0B20090002078
:101FB0004BE00620F7E7082C13D00C2C18D0102C7F
:101FC0001BD0182C44D10098234900EBC00000BF5F
:101FD00001EB8001002711F80850E80712D00B9A96
:101FE00013E000981D4900EB400001EB4001F1E7D0
:101FF00000981B4900EB4000EAE71A49009801EB02
:102000000011E7E70B9828B3002231465046FFF74E
:10201000F9FE761C7F1C6D08FFB2F6B2082FDCD3E8
:102020000AF1010000F0FF0A082C0AD00199AAEB7E
:102030000100B0EB540F04D10BF108008A4600F008
:10204000FF0B08F101005E46C0B280464845B2D39E
:10205000BDE8FC8F0122D8E724490008983C00081D
:10206000C03E0008344300082DE9FF4F81B081468F
:10207000009098460E468B46580701D0012100E09B
:10208000002101EBD80000FB08FA002448E000BF63
:10209000B8F1100F12D0B8F1180F14D0B8F1200F0A
:1020A00019D0B8F1400F3DD12149039801EB4020F0
:1020B0000027055DE80714D00E9A15E01D49039826
:1020C00001EB4010F4E70398194900EBC000C83950
:1020D00001EBC000ECE716490398803901EBC01012
:1020E000E6E70E9808B3002231464846FFF78AFE1D
:1020F000761C7F1C6D08FFB2F6B2082FDAD309F107
:102100000100009900F0FF09A9EB0101414505D14B
:102110000BF10800DDF8009000F0FF0B5E46641C38
:102120005445B5D305B0BDE8F08F0122DCE70000CF
:10213000C85A0008805600082DE9F84F0025DDE94F
:102140000A691F4692468B468046082E00D102251A
:1021500000241CE0381B401EC1B20A20FFF7D5FE48
:10216000BAFBF0F00A21B0FBF1F201FB1200CDF84E
:10217000009080B13030C2B205EB560101FB048003
:10218000C0B233465946FFF7FDFE641CE4B2BC42C0
:10219000E0D3BDE8F88F05EB560101FB0480C0B227
:1021A00033463022EEE72DE9F8411E4615468846B3
:1021B0000446079F0BE03346414620460097FFF751
:1021C000E1FE082E0AD004EB5600C4B26D1C2A783A
:1021D000A2F120005E28EED9BDE8F881A41DE4B28A
:1021E000F4E770B50C460546FFF780FB782000F059
:1021F00021F8FFF7B9FB0CB1402000E0002000F00F
:1022000019F8FFF7B1FB284600F014F8FFF7ACFB14
:10221000BDE87040FFF78EBB704708B500EBC0000B
:1022200020F06040009000BF0098411E0091FAD25B
:1022300008BD70472DE9F041124F054600244FF4C8
:1022400020784FF4A076280601D5012200E0002274
:1022500041463846FEF729FDFFF7A4FB012231462F
:102260003846FEF722FDFFF79DFB00223146384637
:10227000FEF71BFD6806641C050EE4B2082CE2D3D1
:10228000BDE8F081000C014070B50E460024C0018D
:1022900001F0A1FA0022094B01F018F901F03CF815
:1022A00001F094FC054606E03046FFF781FB012073
:1022B000FEF7F4FB641CAC42F6DB70BD00801640F8
:1022C00070B50E460024C00101F085FA0022094BCA
:1022D00001F0FCF801F020F801F078FC054606E07A
:1022E0003046FFF7EDFB0120FEF7D8FB641CAC4243
:1022F000F6DB70BD0080164010B5002208210B48A7
:10230000FEF7D3FC0A4C00224FF400412046FEF7B2
:10231000CCFC0022A1142046FEF7C7FC0022E114E9
:102320002046BDE81040FEF7C0BC0000000C014094
:102330000008014010B50B4C002280212046FEF71A
:10234000B4FC002240212046FEF7AFFC00222021F1
:102350002046FEF7AAFC20460022BDE810401021CE
:10236000FEF7A3BC000C0140FEF7AABC30B593B049
:1023700028216846FDF728FF14210AA8FDF724FF4D
:10238000002501200F9510951195010412958DE8F7
:10239000230004904FF4E010CDE9081002240794C4
:1023A0006846FEF7C9FE08B172B6FEE70AA90F201B
:1023B00081E831004FF48060CDE90D0502210AA8C3
:1023C000FEF7DEFD08B172B6FEE74FF40040119053
:1023D0000F940FA8FEF75EFD002801D072B6FEE74D
:1023E00013B030BD704710B5406A0021C185C1846B
:1023F000FFF747F810BD01680C3151E8002F22F4B7
:10240000907241E80023002BF5D10168143151E8A6
:10241000002F22F0010241E80023002BF5D1016BCF
:10242000012909D101680C3151E8002F22F0100276
:1024300041E80023002BF5D1202180F84210002133
:102440000163704708B590F84210222901D002209C
:1024500008BD82684FF480539A4201D1016921B1CD
:10246000816A9A421BD04AB10AE00268816A5268C6
:10247000C2F308020A80816A891C08E0026972B10D
:102480000268526802F07F020A70816A491C816208
:10249000C18D491E0904090CC18503D01BE00268E7
:1024A0005268F1E70168CA6822F02002CA60016838
:1024B000CA6822F48072CA6001684A6922F0010287
:1024C0004A61202180F8421000214163026B012AF9
:1024D00003D0FFF7B3F9002008BD016301680C3198
:1024E00051E8002F22F0100241E80023002BF5D123
:1024F00001680A68D20602D50A6849680091818D90
:10250000FEF7BEFFE7E7000070B50446006801690A
:10251000E26821F44051114301612169A068084338
:10252000616908432168CA6841F20C639A43024317
:10253000CA6020684169A26921F440711143416178
:102540001E492068884202D1FEF7C0FD01E0FEF777
:10255000ADFD00EBC00101EB00126068642180005A
:10256000B2FBF0F3B3FBF1F36FF018067343B2FB69
:10257000F0F5B2FBF0F605EB8305322303EB05150E
:10258000B5FBF1F5B6FBF1F605F0F00505EB061528
:10259000B2FBF0F6B2FBF0F0B0FBF1F06FF0180216
:1025A000504306EB800003EB0010B0FBF1F0216814
:1025B00000F00F002844886070BD00000038014022
:1025C00081628285C28500214164222180F8421007
:1025D000016921B10168CA6842F48072CA60016869
:1025E0004A6942F001024A610068C16841F0200175
:1025F000C1600020704700000148FEF743BF0000A3
:1026000010050020FEE70907090E002804DB00F191
:10261000E02080F80014704700F00F0000F1E02087
:1026200080F8141D704700002DE9F041204F4FF451
:102630000055204E38786C104FF47A7807280BD26A
:10264000DFE800F00A04060D0F141B00002100E073
:102650000121B420FFF718FEFFF74EFE24E0002111
:1026600000E00121B420FFF72BFEF5E70122294607
:102670003046FEF71AFB002205E0002229463046CC
:10268000FEF713FB012221463046FEF70EFB4046C3
:10269000FEF704FA002229463046FEF706FB002228
:1026A00021463046FEF701FB00203870BDE8F0817E
:1026B00000000020000C01402DE9F04100251A4ED9
:1026C0002C464FF48C7742F2D0580022022130463B
:1026D000FEF7EBFA3846FFF7A0FD1448FEF70EF9B7
:1026E00032211248FEF76CF82820FFF796FD0122F0
:1026F00002213046FEF7D9FA4046FFF78EFD0B481F
:10270000FDF727FF800503D50848FDF724FF0544A2
:10271000641C0A2CD9DB0A20B5FBF0F0044980B216
:102720004880BDE8F08100000008014098040020C6
:1027300000000020FEF7CCFAFFF718FEFFF766FA5C
:10274000FFF73EFAFFF708FBFFF7EAFA1648FDF736
:1027500013FE0F20FEF7CEFA012214491448FFF7AA
:102760005FF80A20FEF79AF9FFF762FB0020FFF7F7
:1027700027FB0020FFF730FBFFF70CFB00F01AF8F7
:10278000012808D0022809D003280AD00428F5D14E
:1027900000F05EF9F2E700F069FCEFE700F0F4FA10
:1027A000ECE700F0F9F9E9E79804002006000020C2
:1027B000100500202DE9F84F0125102300222C469A
:1027C000114618460095FFF74FFC10230122002107
:1027D00020200094FFF748FC102313220021302012
:1027E0000094FFF741FC10230222002140200094B6
:1027F000FFF73AFC10230322002150200094FFF73A
:1028000033FC10231422194618460094FFF72CFCC1
:1028100010231322194620200094FFF725FC1023D3
:102820000822194630200094FFF71EFC10230922CD
:10283000194640200094FFF717FC10230A2219467E
:1028400050200094FFF710FC10230B221946602043
:102850000094FFF709FC10230D2220211846009454
:10286000FFF702FC202110230E2208460094FFF7F8
:10287000FBFB10230F22202130200094FFF7F4FBF4
:1028800010231A46202140200094FFF7EDFB10236F
:102890000F22302118460094FFF7E6FB10231A465A
:1028A000302120200094FFF7DFFB3021102311227C
:1028B00008460094FFF7D8FB102312223021402055
:1028C0000094FFF7D1FB002110235DA2084600947D
:1028D000FFF769FCFFF722FBDFF868915A4E4FF4CF
:1028E00000684FF4806A00BFFFF79EFE009410233B
:1028F00099F8002001216420FFF744FBFFF70EFB4D
:10290000474641463046FEF7CBF978B90A20FEF734
:10291000C5F839463046FEF7C3F90028F9D00A2039
:10292000FEF7BCF86D1C052D00D101255746514618
:102930003046FEF7B5F958B302213046FEF7B0F93C
:10294000B8B3012D46D0022D4FD0032D66D0042DF3
:10295000CAD1002110233DA208460094FFF723FCB2
:1029600010233AA2194600200094FFF71CFC102304
:1029700036A2202100200094FFF715FC102330A27E
:10298000009430210020FFF70EFCFFF7C7FAABE7F9
:102990000A20FEF783F839463046FEF781F9002811
:1029A000F9D00A20FEF77AF8FFF7F4F92846BDE8D7
:1029B000F88FFFE70A20FEF771F802213046FEF794
:1029C0006FF90028F9D00A20FEF768F8FFF7E2F95E
:1029D0000020ECE70021102319A208460094FFF71D
:1029E000E2FB102319A2009409E00021102317A292
:1029F00008460094FFF7D7FB102311A20094102182
:102A00000020FFF7D0FB102310A20094202100200B
:102A1000FFF7C9FB10230DA20094B2E70021102399
:102A20000AA208460094FFF7BEFB102307A219462E
:102A300000200094FFF7B7FB102301A20094E5E704
:102A40003E00000006000020000C014020000000B5
:102A50002DE9FC5F012410230F2200212020009487
:102A6000FFF702FB10231A46002130200094FFF7E5
:102A7000FBFA10231122002140200094FFF7F4FA02
:102A800010231222002152200094FFF7EDFA20219A
:102A9000102334A208460094FFF785FB102332A2CE
:102AA000202128200094FFF77EFB10232FA2202155
:102AB00030200094FFF777FB10232DA2202138202F
:102AC0000094FFF770FB10232AA2202140200094DD
:102AD000FFF769FB102328A2202148200094FFF76C
:102AE00062FBFFF71BFA1026244FDFF89480DFF813
:102AF0009490DFF894A0DFF894B0254DFFF7DCFD4B
:102B0000388800F068FE42464B4600F077FE524699
:102B10005B4600F071FF00221E4B00F0D7FC00F076
:102B20002DFECDE900640246032320215020FFF74B
:102B300003FBFFF7F3F902212846FEF7B1F800285E
:102B4000DCD10A20FDF7AAFF02212846FEF7A8F8EB
:102B50000028F9D00A20FDF7A1FFFFF71BF900209C
:102B6000BDE8FC9F500000004D0000003200000056
:102B70002E000000350000003A0000000200002096
:102B8000C3F5285C8FC2C53F9A9999999999B93F25
:102B9000000C0140000024402DE9F84F01251023CE
:102BA0002F460422002118460095FFF75DFA1023F6
:102BB0000522002120200097FFF756FA10230F224C
:102BC000002130200097FFF74FFA10231A4600210A
:102BD00040200097FFF748FA10230D2200215020D3
:102BE0000097FFF741FA10230E2200216020009782
:102BF000FFF73AFA10230622194618460097FFF706
:102C000033FA10230722194620200097FFF72CFAE9
:102C100010230F22194630200097FFF725FA1023C2
:102C20001A46194640200097FFF71EFA10230D227E
:102C3000194650200097FFF717FA10230E22194665
:102C400060200097FFF710FA002110234BA20846DE
:102C50000097FFF7A8FAFFF761F94FF400684FF407
:102C600080694FF4804A4FF4004B454CFFF7DCFC81
:102C7000464641462046FEF713F800283ED10A207A
:102C8000FDF70CFF31462046FEF70AF80028F9D080
:102C90000A20FDF703FF6D1C032D01DB012504E075
:102CA000012D02D0022D29D10AE00021102333A2E8
:102CB00008460097FFF777FA102332A2009709E041
:102CC000002110232FA208460097FFF76CFA10236B
:102CD0002AA2009710210020FFF765FA102329A2ED
:102CE000202100200097FFF75EFA102325A2302153
:102CF00000200097FFF757FAFFF710F94E464946B4
:102D00002046FDF7CDFF08BB0A20FDF7C7FE314680
:102D10002046FDF7C5FF0028F9D00A20FDF7BEFECA
:102D2000012D02D0022D07D010E00122514620468D
:102D3000FDF7BBFF002205E0012251462046FDF7CA
:102D4000B4FF012259462046FDF7AFFF022120467D
:102D5000FDF7A6FF002889D10A20FDF79FFE02217A
:102D60002046FDF79DFF0028F9D00A20FDF796FECA
:102D7000FFF710F80020BDE8F88F00003E000000CB
:102D8000000C0140200000002DE9F84F0125102320
:102D90002F460422002118460095FFF765F91023FD
:102DA0000522002120200097FFF75EF9102314224E
:102DB000002130200097FFF757F91023152200213A
:102DC00040200097FFF750F900211023A3A20846E6
:102DD0000097FFF7E8F910230622194618460097D6
:102DE000FFF742F910230722194620200097FFF72A
:102DF0003BF910231422194630200097FFF734F9CD
:102E000010231522194640200097FFF72DF91023B3
:102E10001822202118460097FFF726F920211023B9
:102E2000192208460097FFF71FF910230A222021D4
:102E300030200097FFF718F910230C2220214020A2
:102E40000097FFF711F9102316223021184600973A
:102E5000FFF70AF910231722302120200097FFF7EF
:102E600003F9302110230A2208460097FFF7FCF8E7
:102E700010230C22302140200097FFF7F5F8FFF7D0
:102E80004DF84FF400684FF480694FF4005A4FF446
:102E9000805B734CFFF7C8FB464641462046FDF772
:102EA000FFFE00286DD10A20FDF7F8FD31462046CF
:102EB000FDF7F6FE0028F9D00A20FDF7EFFD6D1CA6
:102EC000052D01DB012508E0012D06D0022D0FD0D4
:102ED000032D26D0042D54D135E0002110235FA20C
:102EE00008460097FFF75FF910235EA2009709E0FC
:102EF000002110235BA208460097FFF754F9102326
:102F000056A2009710210020FFF74DF9102355A27B
:102F1000009720210020FFF746F9102351A20097C7
:102F200029E0002110234FA208460097FFF73BF944
:102F300010234CA2194600200097FFF734F9102304
:102F400046A20097E5E70021102346A20846009715
:102F5000FFF729F9102343A2194600200097FFF735
:102F600022F910233FA2202100200097FFF71BF930
:102F700010233AA2009730210020FFF714F9FEF742
:102F8000CDFF4E4649462046FDF78AFEA8BB0A20E3
:102F9000FDF784FD31462046FDF782FE0028F9D07A
:102FA0000A20FDF77BFD012D04D0022D04D0032D56
:102FB0001AD007E0012200E000224FF480712A4875
:102FC000FDF773FE4FF47A763046FDF767FD002279
:102FD00051462046FDF769FE002259462046FDF77E
:102FE00064FE042D0AD013E0012251462046FDF76D
:102FF0005CFE002259462046E2E716E000225146D8
:103000002046FDF752FE012259462046FDF74DFEAF
:103010003046FDF743FD002251462046FDF745FEB0
:10302000002259462046FDF740FE02212046FDF7CA
:1030300037FE00287FF42EAF0A20FDF72FFD022176
:103040002046FDF72DFE0028F9D00A20FDF726FDC9
:10305000FEF7A0FE0020BDE8F88F00003E00000053
:10306000000C014020000000000801402DE9F84359
:103070000124102327460422002118460094FEF75D
:10308000F3FF10230522002120200097FEF7ECFF1C
:1030900010230222002130200097FEF7E5FF1023C5
:1030A0000122002140200097FEF7DEFF00211023BF
:1030B00096A208460097FFF776F8102306221946D5
:1030C00018460097FEF7D0FF10230722194620204C
:1030D0000097FEF7C9FF1023002219463020009701
:1030E000FEF7C2FF10230122194640200097FEF789
:1030F000BBFF10230422202118460097FEF7B4FFDF
:1031000020211023052208460097FEF7ADFF10236B
:103110000222202130200097FEF7A6FF1023032271
:10312000202140200097FEF79FFF10230622302128
:1031300018460097FEF798FF102307223021202021
:103140000097FEF791FF30211023022208460097D6
:10315000FEF78AFF10230322302140200097FEF75C
:1031600083FFFEF7DBFE4FF400684FF48069684D83
:10317000FFF75AFA464641462846FDF791FD0028DA
:103180006DD10A20FDF78AFC31462846FDF788FDFF
:103190000028F9D00A20FDF781FC641C052C01DB16
:1031A000012408E0012C06D0022C0FD0032C26D0DD
:1031B000042C54D135E00021102354A20846009776
:1031C000FEF7F1FF102353A2009709E0002110231E
:1031D00050A208460097FEF7E6FF10234BA2009787
:1031E00010210020FEF7DFFF10234AA200972021C4
:1031F0000020FEF7D8FF102346A2009729E0002107
:10320000102344A208460097FEF7CDFF102341A2E9
:10321000194600200097FEF7C6FF10233BA2009737
:10322000E5E7002110233BA208460097FEF7BBFF0D
:10323000102338A2194600200097FEF7B4FF102390
:1032400034A2202100200097FEF7ADFF10232FA20B
:10325000009730210020FEF7A6FFFEF75FFE4E46E6
:1032600049462846FDF71CFD88BB0A20FDF716FCE1
:1032700031462846FDF714FD0028F9D00A20FDF755
:103280000DFC012C08D0FFF737F8022C0DD0FFF70A
:1032900033F8032C14D00EE00021B420FEF7F4FF25
:1032A000FFF72AF8FFF728F80EE00121B420FEF717
:1032B000EBFFFFF721F8FFF73DF8042C08D00BE0F7
:1032C0000021B420FEF7FCFFFFF734F804E005E02E
:1032D0000121B420FEF7F4FFFFF72CF80221284665
:1032E000FDF7DEFC00287FF443AF0A20FDF7D6FB94
:1032F00002212846FDF7D4FC0028F9D00A20FDF76A
:10330000CDFBFEF747FD0020BDE8F8833E0000003E
:10331000000C01402000000021F00042A2F16052A8
:10332000B2F5801F01F0004328BFD2F17F6C0BD9AA
:103330005FEA001C43EAC20242EB507018BF7047BC
:1033400028BF20F001007047B2F5801FBCBF1846AF
:1033500070474FEA410C1CF5001F02D2084600F0EE
:1033600096BC70B500F0F4FA00000089FFF7F6BFD4
:103370004FF00040A0F580007047000010B591EAC2
:10338000030F48BF83F0004300F13E83841A71EBC2
:10339000030C05D2121943EB0C03001B61EB0C016B
:1033A000DFF824E14FEA1154A4EB135C1EEA430F4B
:1033B00018BF9EEA445F73D023EA0E03DCF1200EAF
:1033C00021EA045143F4801332D322FA0CFE10EBAD
:1033D0000E0023FA0CFE41EB0E01CCF1200E03FA95
:1033E0000EFE10EB0E0051F10001B1F5801FCCF183
:1033F000200E32D201EB045112FA0EF2BDE8104059
:1034000058BF7047401C38BF5FEA420218BF704780
:10341000002814BF20F0010041F100014FEA4103F0
:1034200013F5001F38BF7047A1F1C04100F0DEBAAC
:10343000012A43EB0302ACF1200CDCF11F0E32BF7A
:103440004FF0000E23FA0CF310EB030041EB045194
:10345000B4EB115FD0D0A1EB045101F58011490804
:103460005FEA300001EB04510ED350F1000038BF89
:1034700012FA0EFE08D1BDE81040C9E7401C38BF63
:103480005FEA4202CAD1C3E7BDE810404FEA4103F8
:1034900013F5001F38BF7047A1F1C04100F0A6BA74
:1034A0009EEA445F08D011EA5E0FBDE8104004BFF9
:1034B00001F0004100207047BDE8104070B500F0F9
:1034C00047FA00BF64FBBE3E0000E0FF2DE9C041AB
:1034D00030B4DFF8A0C23CEA111418BF3CEA131460
:1034E00000F0EC8081EA03051CEA111444EAD5746B
:1034F00018BF1CEA131500F0C780A4EB05044FF0B9
:10350000004545EAC12145EAC32341EA505143EA57
:10351000525304F17F74994204F500344FEAC020FD
:103520004FEAC22208BF904200F09C804FEA136528
:103530000FF24016765D4FEA134506FB05F7C7F11B
:10354000807706FB07F74FEAD737A7FB0368764279
:10355000C8F58038A7FB06CE38BFA8F1010807FBE5
:1035600008E64FF0000EA6FB028CE6FB03CEDCF172
:10357000000CCEF1004E38BFAEF1010EA6FB0C5888
:103580004FF000074FF00005E6FB0E87A1FB08C6D1
:10359000A0FB07CE16EB0E0645F10005E1FB076523
:1035A00015F1E04E7EBFA4F580345FEA46066D411A
:1035B00016F1800745F100054FEA17274FEA066626
:1035C00047EA0567A6F1DE46B6F1805F4FEA1525AA
:1035D0001FD9384624F0010C05EBC471BCF1FE6F15
:1035E00001EB0C1102D8F0BCBDE8008124425CBFA5
:1035F00001F5801E9EEAC47F02D4F0BCBDE80081C4
:10360000244238D4F0BCA1F1C041BDE8004100F033
:10361000EDB94FEAD22242EA43524FEAD323A7FB45
:1036200002864FEAD02040EA415007FB03661EEABB
:103630000E0F4FEAD12105FB026658BFA6EB0056DC
:10364000B6EB00564FEA520E4EEAC37E18EB0E0E52
:1036500056EB530EBDD518EB02085E417F1C55F1A9
:103660000005B6E74FF480154FF000074FF0000655
:103670004FF00008ADE7F0BC4FF0000001F1C04191
:1036800001F00041BDE8008111EA0C1F0CEA13159E
:1036900000D00CE013EA0C1F00F025804FF0000072
:1036A000F0BC81EA030101F00041BDE80081F0BCFB
:1036B000BDE8004181EA030100F098B9F0BCBDE823
:1036C000004170B500F044F9097EFC3E00F007B8F7
:1036D00081EA03014FF0000001F00041704781EAE8
:1036E000030100F083B9F0BCBDE800414FF00000D9
:1036F00021497047FFFDFBF9F7F5F4F2F0EEEDEB31
:10370000E9E8E6E4E3E1E0DEDDDBDAD8D7D5D4D3DF
:10371000D1D0CFCDCCCBCAC8C7C6C5C4C2C1C0BF2B
:10372000BEBDBCBBBAB9B8B7B6B5B4B3B2B1B0AF31
:10373000AEADACABAAA9A8A8A7A6A5A4A3A3A2A115
:10374000A09F9F9E9D9C9C9B9A99999897979695D0
:1037500095949393929191908F8F8E8E8D8C8C8B6C
:103760008B8A8989888887878685858484838382F4
:10377000828181800000FF070000F87F4FEA11532B
:10378000A3F58063D3F11E03A8BFD3F1200C08DB9F
:103790004FF0004242EAC12252EA505232FA03F09C
:1037A000704709420BD4102BC4BF0020704703F5AB
:1037B000787CBCF1FF3F05D04FF0FF3070474FF0F1
:1037C0000000704770B500F0C3F800BF4992248034
:1037D00000207047F0E7B0FA80F310FA03F10AD046
:1037E000C3F11D0303F580634FEA41504FEA0352D2
:1037F00002EBD12170474FF000007047DFF848C15D
:1038000070B51CEA111E1EBF1CEA13159EEA0C0FB0
:1038100095EA0C0F00F06F8081EA030423EA4C1351
:103820004EEAD47E21EA4C1141F4801143F4801316
:10383000AE44A1FB024CA0FB0365AEF17F7E3619BE
:1038400055EB0C05A1FB034C4CF10003A0FB021C43
:1038500016EB0C06654153F10003094218BF46F010
:10386000010613F4007F0BD14FEA03314FEA053014
:10387000340341EA155140EA16506FF003020AE0A2
:103880004FEAC3214FEAC520F40241EA555140EA0C
:1038900056506FF0020202EB2E4201EB025585EA10
:1038A000CE710AD05FEA440C18BF24F0004450F1F6
:1038B000000041F1000120EAD47040F2FE7C624534
:1038C00000D270BDA84214BF4FF080444FF0404476
:1038D000002E08BF0024BEF1806FA8BFA1F1C04137
:1038E000BDE8704080F282804FF0000001F1C041DD
:1038F00001F0004170479EEA0C0F0CEA131518BF47
:1039000095EA0C0F06D04FF0000081EA030E0EF08E
:10391000004170BD00F01CF88900013E00F007B8BE
:1039200000F009B84FEA430C5FEA5C5C08D081EA1A
:10393000030100F05BB84FEA410C5FEA5C5CF6D132
:103940004FF00000014970470000FF070000F87FBA
:103950000EF1020E2EF0030E5EF8046B364205D413
:10396000012A43EB030515F5001F12D8012841EB8E
:10397000010C1CF5001F0CD80ED14FEAD17C15F5B7
:10398000001F0CEB4C0C0CF1020C08BF4CEBD37C71
:1039900004E04FF0080C01E04FEAD37C0CEB4C053F
:1039A00026FA05F606F00706B6F1040C06D20EEB71
:1039B000860CBDE870404CF0010C6047DFE80CF06D
:1039C000090B02024FF000414FF00000A1F5002169
:1039D00070BD19461046012851EB010418BFD4F5FB
:1039E000001484BF002001F0004170BD0808A0F55C
:1039F00000114FEA3101704710B591EA030F48BF3B
:103A000083F000433FF5C2AC841A71EB030C07D27C
:103A100012198CF0004C43EB0C03001B61EB0C0102
:103A2000DFF8A4E14FEA1154A4EB135C1EEA430F44
:103A300018BF9EEA445F00F0B08023EA6E03524252
:103A400021EA0451C3EB6E0338BF5B1EDCF1200E8C
:103A500025D322FA0CFE10EB0E0043FA0CFE41EBCC
:103A60000E01CCF1200E03FA0EFE10EB0E0051F108
:103A70000001CCF1200E29D412FA0EF201EB045110
:103A8000BDE8104058BF7047401C1CBFB2F1004F4A
:103A9000704700280CBF491C20F00100704712EB52
:103AA000020E43EB030218BF4FF0010E4EEA420232
:103AB000ACF1200CDCF11E0E54D943FA0CFE10EBD5
:103AC0000E0051F1FF31CCF11E0ED5D50EF1010ED5
:103AD00012FA0EFE404141EB010101EB445C5FEA4A
:103AE0005C5C10D910EBDE7001EB045138BFBEF105
:103AF000004FBDE8104018BF704700280CBF491C9C
:103B000020F00100704730D24FEAD42C11F500119B
:103B100024F400641BD0B1FA81F20B3AA41AA41E5B
:103B2000D2F12003914030FA03F31943904001EBA6
:103B3000CC71002C01EB0451BDE81040A8BF7047C8
:103B400001F1C0414FF0000001F000417047B0FAB0
:103B500080F310FA03F100D110BDE41A173C4805B8
:103B6000C90AE4E701EB045110BD491001EB04510F
:103B7000BDE810404FEA300002E04FF0000170470E
:103B80004A0008BF0042F8D0B2F5001F28BF7047B6
:103B900001F000414FF0000070479EEA445F07D0FB
:103BA00011EA5E0FBDE8104004BF002100207047FD
:103BB000BDE8104070B5FFF7CBFE00BF40DFF63E1A
:103BC00083F00041104670470000E0FF41000B0EFB
:103BD000D3F19E0208D950F400034FEA032323FADD
:103BE00002F048BF4042704710B500F00AF800BF2D
:103BF00049922480002070476FF0004282EA200042
:103C000070470EF1020E2EF0030E5EF8044B2442B4
:103C100004D44FEA4102B2F17F4F11D84FEA40037A
:103C2000B3F17F4F0CD80ED14FEAD07CB2F17F4F69
:103C30000CEB4C0C0CF1020C08BF4CEBD17C04E0FB
:103C40004FF0080C01E04FEAD17C0CEB4C0324FA56
:103C500003F404F00704B4F1040C06D20EEB840C58
:103C6000BDE810404CF0010C6047DFE80CF007089D
:103C700002024FF00040A0F5800010BD084642004F
:103C800018BFD2F1807288BF00F0004010BDFF2144
:103C900041EAD050C005704700000000000000005D
:103CA000002F000000000700070000147F147F149D
:103CB00000242A7F2A120062640813230036495523
:103CC000225000000503000000001C2241000000FB
:103CD00041221C000014083E08140008083E080891
:103CE000000000A0600000080808080800006060EC
:103CF0000000002010080402003E5149453E00002B
:103D0000427F4000004261514946002141454B310C
:103D1000001814127F10002745454539003C4A49D8
:103D2000493000017109050300364949493600064A
:103D30004949291E000036360000000056360000B2
:103D4000000814224100001414141414000041222D
:103D5000140800020151090600324959513E007C05
:103D60001211127C007F49494936003E41414122EF
:103D7000007F4141221C007F49494941007F0909D8
:103D80000901003E4149497A007F0808087F000088
:103D9000417F4100002040413F01007F0814224143
:103DA000007F40404040007F020C027F007F0408FB
:103DB000107F003E4141413E007F09090906003E57
:103DC0004151215E007F0919294600464949493180
:103DD0000001017F0101003F4040403F001F2040A3
:103DE000201F003F4038403F006314081463000761
:103DF0000870080700615149454300007F414100B8
:103E000000552A552A55000041417F000004020157
:103E10000204004040404040000001020400002035
:103E200054545478007F4844443800384444442073
:103E300000384444487F00385454541800087E0920
:103E400001020018A4A4A47C007F080404780000E8
:103E5000447D4000004080847D00007F10284400A5
:103E60000000417F4000007C04180478007C0804B6
:103E7000047800384444443800FC242424180018F2
:103E8000242418FC007C08040408004854545420DE
:103E900000043F444020003C4040207C001C204067
:103EA000201C003C4030403C004428102844001CAA
:103EB000A0A0A07C004464544C44141414141414A2
:103EC0000000000000000000000000000000FC00F6
:103ED0000000000002000000000C020C02000000C4
:103EE0000000000090D0BCD0BC9000030003000094
:103EF0001824FE448C000302070201001824D8B0E5
:103F00004C80000300010201C038E438E0000102E7
:103F1000020102020806000000000000000000008C
:103F2000000000F80402000000010204000204F88E
:103F300000000004020100009060F86090000000A2
:103F4000010000002020FC202000000001000000F3
:103F500000000000000008060000000020202020D3
:103F6000200000000000000000000000000000022F
:103F7000000000000080601C02000403000000003C
:103F8000F8040404F8000102020201000008FC0029
:103F900000000002030200001884442418000302F9
:103FA0000202020008042424D800010202020100D7
:103FB00040B088FC80000000000302003C24242460
:103FC000C400010202020100F824242CC0000102F6
:103FD000020201000C04E41C0400000003000000C5
:103FE000D8242424D80001020202010038444444A9
:103FF000F8000003020201000000100000000000B1
:104000000200000000002000000000000600000088
:10401000002050880402000000000102909090905F
:104020009000000000000000000204885020000200
:10403000010000001804C424180000000200000061
:10404000F804E494F80001020202020000E09CF08F
:10405000800002030000030204FC2424D8000203B1
:1040600002020100F80404040C0001020202010033
:1040700004FC0404F80002030202010004FC24749E
:104080000C0002030202030004FC24740C0002036F
:1040900002000000F0080444CC40000102020100CC
:1040A00004FC2020FC040203000003020404FC04BE
:1040B0000400020203020200000404FC04040604DB
:1040C0000403000004FC24D00C04020302000302D9
:1040D00004FC04000000020302020203FC3CC03C9A
:1040E000FC0003000300030004FC30C4FC040203D2
:1040F00002000300F8040404F800010202020100B7
:1041000004FC24241800020302000000F884840444
:10411000F80001020207050004FC24649800020371
:1041200002000302182424448C000302020201004E
:104130000C04FC040C0000020302000004FC00005C
:10414000FC04000102020100047C80E01C04000069
:10415000030000001CE03CE01C0000030003000022
:10416000049C609C0400020300030200041CE01C89
:1041700004000002030200000C84641C040002031B
:10418000020203000000FE02020000000704040017
:10419000000E30C00000000000010200000202FE1C
:1041A00000000004040700000004020400000000F6
:1041B00000000000000000000000080808080808CF
:1041C0000000020000000000000000000040A0A06D
:1041D000C00000010202030204FC2020C000000312
:1041E0000202010000C02020600000010202020063
:1041F00000C02024FC0000010202030200C0A0A0B5
:10420000C0000001020202000020F8242404000281
:10421000030202000040A0A0602000070A0A0A046E
:1042200004FC2020C0000203020003020020E4007E
:104230000000000203020000000020E40000080863
:104240000807000004FC80E02020020302000302B3
:104250000404FC000000020203020200E020E0204F
:10426000C00003000300030020E02020C000020380
:104270000200030200C02020C00000010202010071
:1042800020E02020C000080F0A02010000C020200A
:10429000E0000001020A0F0820E040202000020395
:1042A000020000000060A0A0200000020202030043
:1042B0000020F820000000000102020020E00020A1
:1042C000E00000010202030220E0208060200000E4
:1042D000030100006080E080600000030003000034
:1042E00020608060200002030003020020E02080A4
:1042F00060200808070100000020A06020000002E4
:1043000003020200000020DE02000000000704009B
:10431000000000FF00000000000F00000002DE208F
:104320000000000407000000020102040402000073
:10433000000000000000000000000000000000007D
:1043400000000000000000F8000000000000003342
:104350003000000000100C06100C060000000000E9
:104360000000000040C07840C0784000043F0404D2
:104370003F040400007088FC08300000001820FF93
:10438000211E0000F008F000E018000000211C03CE
:104390001E211E0000F00888700000001E2123244A
:1043A0001927211010160E00000000000000000068
:1043B00000000000000000E01804020000000007F8
:1043C0001820400000020418E000000000402018FF
:1043D00007000000404080F0804040000202010FD2
:1043E00001020200000000F0000000000101011FB6
:1043F00001010100000000000000000080B070001A
:1044000000000000000000000000000000010101A9
:104410000101010100000000000000000030300038
:104420000000000000000000806018040060180612
:104430000100000000E010080810E000000F10204C
:1044400020100F00001010F8000000000020203F96
:104450002020000000700808088870000030282420
:1044600022213000003008888848300000182020C1
:1044700020110E000000C02010F8000000070424E6
:10448000243F240000F8088888080800001921202B
:1044900020110E0000E0108888180000000F112085
:1044A00020110E0000380808C83808000000003F3E
:1044B000000000000070880808887000001C22219D
:1044C00021221C0000E010080810E000000031224A
:1044D00022110F00000000C0C000000000000030EA
:1044E000300000000000008000000000000080603C
:1044F00000000000000080402010080000010204BD
:1045000008102000404040404040400004040404A3
:10451000040404000008102040800000002010085F
:1045200004020100007048080808F0000000003094
:1045300036010000C030C828E810E0000718272422
:1045400023140B000000C038E0000000203C2302D0
:104550000227382008F8888888700000203F202033
:1045600020110E00C0300808080838000718202065
:104570002010080008F808080810E000203F20205C
:1045800020100F0008F88888E8081000203F20203D
:104590002320180008F88888E8081000203F200031
:1045A00003000000C0300808083800000718202069
:1045B000221E020008F808000008F808203F210128
:1045C00001213F20000808F8080800000020203FD3
:1045D0002020000000000808F8080800C080808043
:1045E0007F00000008F888C028180800203F20013C
:1045F0002638200008F8080000000000203F202096
:104600002020300008F8F800F8F80800203F003FAC
:10461000003F200008F830C00008F808203F2000C4
:1046200007183F00E01008080810E0000F102020D5
:1046300020100F0008F808080808F000203F2101AA
:1046400001010000E01008080810E0000F18242401
:1046500038504F0008F8888888887000203F200074
:10466000030C30200070880808083800003820212A
:1046700021221C00180808F8080818000000203F34
:104680002000000008F808000008F808001F20209B
:1046900020201F000878880000C83808000007386C
:1046A0000E010000F80800F80008F800033C0700BD
:1046B000073C0300081868808068180820302C0325
:1046C000032C30200838C800C83808000000203FFC
:1046D0002000000010080808C838080020382621EB
:1046E00020201800000000FE020202000000007FEF
:1046F00040404000000C30C00000000000000001FD
:104700000638C00000020202FE00000000404040E7
:104710007F0000000000040202020400000000000C
:104720000000000000000000000000008080808089
:104730008080808000020204000000000000000071
:10474000000000000000808080800000001924220A
:1047500022223F2008F8008080000000003F112046
:1047600020110E000000008080800000000E11204B
:1047700020201100000000808088F800000E112029
:1047800020103F200000808080800000001F222237
:1047900022221300008080F0888888180020203FA3
:1047A000202000000000808080808000006B9494B6
:1047B0009493600008F8008080800000203F210072
:1047C00000203F2000809898000000000020203F3B
:1047D00020200000000000809898000000C0808029
:1047E000807F000008F8000080808000203F2402C5
:1047F0002D302000000808F8000000000020203FB5
:10480000202000008080808080808000203F200069
:104810003F20003F8080008080800000203F2100FA
:1048200000203F200000808080800000001F2020AA
:1048300020201F00808000808000000080FFA120D9
:1048400020110E000000008080808000000E1120EA
:1048500020A0FF80808080008080800020203F2179
:10486000200001000000808080808000003324242C
:1048700024241900008080E0808000000000001FD8
:10488000202000008080000000808000001F202089
:1048900020103F20808080000080808000010E304A
:1048A0000806010080800080008080800F300C03AB
:1048B0000C300F0000808000808080000020312EAE
:1048C0000E312000808080000080808080818E708A
:1048D0001806010000808080808080000021302C3C
:1048E0002221300000000000807C02020000000055
:1048F000003F404000000000FF00000000000000FA
:10490000FF0000000002027C800000000040403FE9
:104910000000000000060101020204040000000083
:104920000000000000000000000000000000000087
:104930000000000000000000000000000000000077
:1049400000000000000000000000000000F0F0F097
:10495000000000000000000000017F0100000000D6
:1049600000000000001C1C1C000000000000806013
:10497000301C8C60301C0C000000000000000000A7
:104980000000000000000000000000000000000027
:10499000000000E00000000000E000000086E69F4C
:1049A00086868686E69F860000011F0101010101BF
:1049B0001F010100000080C06020F820E0C000005E
:1049C000000003070C18FF70E18100000000070FD2
:1049D00010107F100F070000806020608000000032
:1049E000E02000000F3020309F70DC371030C00016
:1049F0000000100E03000718101807000000C02068
:104A000020E0C0000000000080E01F38E88703C4F9
:104A10003C040000070F1810100B070D10100800C1
:104A200000808C4C380000000000000000000000F6
:104A30000000000000000000000000000000000076
:104A40000000000000000000000080E030080400CA
:104A50000000000000FEFF01000000000000000058
:104A60000000030F1820400000040830E080000020
:104A7000000000000000000001FFFE000000000038
:104A8000004020180F03000000000000000000009C
:104A90000000C00000000000004266663C18FF18DD
:104AA0003C666642000000000000030000000000B9
:104AB0000000000000008000000000000010101046
:104AC0001010FF1010101010000000000000030074
:104AD00000000000000000000000000000000000D6
:104AE00000000000000000000000000000808C4C6E
:104AF000380000000000000000000000000000007E
:104B00000000000000101010101010101010100005
:104B10000000000000000000000000000000000095
:104B20000000000000000000000000000000000085
:104B30000000000000001C1C1C0000000000000021
:104B40000000000000000000E0380C000000000041
:104B500080701C03000000000060380E010000009F
:104B600000000000000080C060202060C0800000C5
:104B700000FEFF010000000001FFFE000001070E23
:104B8000181010180E0701000000808080C0E0009F
:104B9000000000000000000000FFFF000000000017
:104BA00000001010101F1F10101000000080402087
:104BB00020202060C08000000003030080402038D7
:104BC0001F070000001C1A1918181818181F0000D9
:104BD0000080C020202060C080000000000303008F
:104BE0001010182FE780000000070F101010101889
:104BF0000F070000000000000000C0E0F00000000F
:104C000000C0B088868180FFFF8080000000000027
:104C10000010101F1F1010000000E0606060606056
:104C20006060000000003F1008080818F0E0000075
:104C300000070B101010101C0F030000000080C0B4
:104C400040202020E0C0000000FCFF2110080808E0
:104C500018F0E0000001070C18101010080F0300F6
:104C60000000C0E06060606060E060000000030081
:104C70000000E0180700000000000000001F1F00F7
:104C8000000000000080C0602020202060C0800064
:104C90000087EF2C1818303068CF830000070F080A
:104CA00010101010180F07000000C0C02020202096
:104CB000C0800000001F3F604040402010FFFE0009
:104CC00000000C1C101010080F0300000000000072
:104CD000000000000000000000000000000E0E0EAA
:104CE0000000000000000000001C1C1C0000000070
:104CF00000000000000000000000000000000000B4
:104D0000000C0C00000000000000000000583800FB
:104D100000000000000000000000008040201000A3
:104D20000000102844820100000000000000000084
:104D30000000010204081000000000000000000054
:104D4000000000000084848484848484848484003B
:104D50000000000000000000000000000000102023
:104D60004080000000000000000000000000018200
:104D70004428100000001008040201000000000098
:104D800000C020201010101030E0C000000303000D
:104D900000F010080C070300000000001C1C1C00A1
:104DA00000000000000000C0406020202040C00043
:104DB00000FCFF01F00E03C1FE03807F0001070E1F
:104DC00008111110110904020000000080E0E00049
:104DD000000000000000807C4340477FF880000016
:104DE00010181F1000000000131F1C1020E0E0200E
:104DF00020202060C080000000FFFF10101010185D
:104E00002FE78000101F1F1010101010180F070040
:104E1000000080C0402020202060E00000FCFF0156
:104E200000000000000001000001070E1810101023
:104E30000804030020E0E02020202040C080000083
:104E400000FFFF000000000001FFFE00101F1F1008
:104E5000101018080E07010020E0E020202020207C
:104E60002060800000FFFF101010107C0000000088
:104E7000101F1F10101010101018060020E0E02066
:104E8000202020206060800000FFFF101010107CA8
:104E900000000100101F1F100000000000000000B3
:104EA000000080C06020202040E0000000FCFF01E6
:104EB00000004040C0C140400001070E1810101013
:104EC0000F0F000020E0E0200000000020E0E020C4
:104ED00000FFFF101010101010FFFF00101F1F1018
:104EE00000000000101F1F100000202020E0E02024
:104EF000202000000000000000FFFF000000000074
:104F000000001010101F1F10101000000000000003
:104F1000202020E0E020202000000000000000FF12
:104F2000FF0000000060E0808080C07F3F00000044
:104F300020E0E020000020A06020200000FFFF30E3
:104F4000187CE3C000000000101F1F1000000113B8
:104F50001F1C181020E0E0200000000000000000EE
:104F600000FFFF000000000000000000101F1F10E5
:104F7000101010101018060020E0E0E00000000003
:104F8000E0E0E02000FF013FFEC0E01E01FFFF0067
:104F9000101F1000031F0300101F1F1020E0E0C0AF
:104FA000000000000020E02000FF0003071C78E064
:104FB0008000FF00101F100000000000030F1F0002
:104FC000000080C060202060C080000000FEFF0163
:104FD0000000000000FFFE000001070E181010186E
:104FE0000C07010020E0E0202020202060C080008D
:104FF00000FFFF2020202020301F0F00101F1F1057
:105000000000000000000000000080C06020206060
:10501000C080000000FEFF010000000000FFFE0055
:105020000001070E1111133C7C67210020E0E020F5
:105030002020202060C0800000FFFF101030F0D042
:10504000080F0700101F1F10000000030F1C101096
:105050000080C060202020204040E00000070F0CAE
:105060001818303060E08100001F0C08101010107C
:10507000180F07008060202020E0E02020206080C2
:105080000100000000FFFF00000000010000000020
:10509000101F1F100000000020E0E02000000000B2
:1050A0000020E02000FFFF00000000000000FF00E3
:1050B00000070F1810101010100807002060E0E023
:1050C0002000000020E060200000077FF8800080C2
:1050D0007C03000000000000071F1C070000000008
:1050E00020E0E02000E0E0200020E0200007FFF8C2
:1050F000E01FFFFCE01F00000000031F0300011F72
:1051000003000000002060E0A0000020E06020001C
:10511000000000038F7CF8C6010000000010181E7C
:10512000130001171F1810002060E0E020000000AD
:1051300020E06020000001073EF8E01807000000B2
:1051400000000010101F1F101000000000806020E1
:10515000202020A0E0E0200000000000C0F03E0F72
:105160000300000000101C1F17101010101806007C
:105170000000000000FC040404040400000000001F
:1051800000FF00000000000000000000007F404021
:1051900040404000000010E000000000000000005F
:1051A00000000000031C6080000000000000000000
:1051B000000000030C70800000000404040404FCE0
:1051C0000000000000000000000000FF00000000E0
:1051D000000040404040407F000000000000001000
:1051E000080C040C08100000000000000000000083
:1051F00000000000000000000000000000000000AF
:10520000000000000000000000000000000000009E
:10521000000000000000000080808080808080808E
:105220008080808000000004040808000000000066
:10523000000000000000000000000000000000006E
:10524000000000000000000000000000000000005E
:1052500000000000000098D844642424FCF80000FA
:10526000000F1F18101010081F1F10180020E0F06A
:1052700000000000000000000000FFFF1808040408
:105280000CF8F00000001F0F18101010180F03008A
:1052900000000000000000000000000000E0F8181E
:1052A0000404043C3800000000030F0C1010101020
:1052B000080600000000000000000020E0F00000F0
:1052C00000E0F81C04040408FFFF000000030F18AE
:1052D000101010081F0F0800000000000000000060
:1052E000000000000000E0F8484444444C7870009E
:1052F0000000030F0C18101010080400000000003C
:1053000080C0602020E0C00000040404FFFF04040B
:1053100004040000000010101F1F101010000000F7
:10532000000000000000000000000000000070F815
:105330008C04048CF874040C007076CF8D8D8D89EC
:10534000C87870000020E0F00000000000000000BD
:105350000000FFFF08040404FCF8000000101F1FF9
:10536000100000101F1F100000000000006060000F
:10537000000000000000040404FCFC000000000029
:1053800000001010101F1F1010100000000000007F
:10539000000000606000000000000000040404FC45
:1053A000FC0000000000C0C08080C07F3F00000003
:1053B0000020E0F000000000000000000000FFFFFF
:1053C00080C0F41C0404000000101F1F1100031F04
:1053D0001C1010000000202020E0F0000000000061
:1053E0000000000000FFFF0000000000000010109F
:1053F000101F1F101010000000000000000000002F
:105400000000000004FCFC0804FCFC0804FCFC0098
:10541000101F1F10001F1F10001F1F100000000092
:1054200000000000000000000004FCFC0808040468
:10543000FCF8000000101F1F100000101F1F1000BC
:1054400000000000000000000000000000E0F01874
:105450000C04040C18F0E00000030F0C10101010E6
:105460000C0F03000000000000000000000000001E
:105470000004FCFC080404040CF8F0000080FFFFAA
:10548000889010101C0F03000000000000000000B6
:105490000000000000E0F81C04040408F8FC000010
:1054A00000030F1810109088FFFF8000000000001C
:1054B0000000000000000000040404FCFC100804CC
:1054C000040C0C001010101F1F1010100000000022
:1054D0000000000000000000000000000000307824
:1054E000CCC48484840C1C0000001E181010101101
:1054F000190F06000000000000C0000000000000BE
:1055000000040404FFFF0404040000000000000085
:105510000F1F1010100C0000000000000000000021
:10552000000000000004FCFE00000004FCFE00007F
:1055300000000F1F181010081F0F080000000000C7
:10554000000000000000000000040C3CFCC400004F
:10555000C43C0C0400000000010F1E0E01000000FE
:10556000000000000000000000000000043CFCC43B
:1055700000E47CFC84807C040000071F0700000717
:105580001F070000000000000000000000000000F5
:105590000004041C7CE4C0341C0404000010101C33
:1055A0001601131F1C18100000000000000000006E
:1055B0000000000000040C3CFCC400C43C040400D7
:1055C0000000C080C1370E01000000000000000094
:1055D000000000000000000000001C0404C4F47C73
:1055E0001C0400000000101C1F17111010180E00E2
:1055F00000000000000000F80C04000000000000A3
:10560000001028EF00000000000000000000003F34
:1056100060400000000000000000FF0000000000EB
:10562000000000000000FF0000000000000000007B
:105630000000FF00000000000000040CF800000063
:105640000000000000000000EF2810000000000033
:10565000000040603F00000000000000001806024B
:1056600002040810202030080000000000000000A4
:10567000000000000000000000000000000000002A
:10568000100CC4544C64D54644444C54C4140C000F
:105690000000FF404462554955434040FF00000070
:1056A000000000F80808090E08080808F8000000C3
:1056B0000080601F010101010101010103000000E0
:1056C000100CC4544C64D54644444C54C4140C00CF
:1056D0000000FF404462554955434040FF00000030
:1056E000100C4424140405C60404142444140C00AF
:1056F00000003F01010101FF010111211F00000015
:10570000101010FF109004040404FC0404040400AE
:105710000444827F0100000040807F000000000000
:1057200080828282FE8282828282FE8282828000E7
:10573000008040300F0000000000FF00000000006B
:1057400000001011161010F01010141310000000BB
:105750008181414121110D030D11214141818100C0
:1057600000F80122202222A2FA22222202FE0000B8
:1057700000FF0008040211201F000040807F00008D
:1057800000FC8484FC0004E42425262424E4040092
:10579000003F10103F0020134A827E020A132000AF
:1057A00000FC8484FC02E222FE2222FE22E20200AD
:1057B000003F10103F00FF484740404744FF0000B3
:1057C0000808080808C839CE08080808880808002A
:1057D00010080402FF40200003040A11204040008A
:1057E0000000FE222222FE00FE828292A29E000083
:1057F00080601F0242827F00FF402F102C438000F8
:105800001010D0FF901080828282FE8282828000FF
:10581000040300FF000300000000FF000000000080
:1058200000020CE00028242724E4342C20E00000AF
:1058300004047F0001090949897F0909091F010042
:10584000008060F807000000FF40201008040000FE
:10585000010000FF000402013F404040404078004A
:10586000100C4424140405060404142444140C00ED
:10587000004040414141417F4141414140400000A1
:1058800020104C4754545454545454D4040400002D
:1058900000000000000000000000000F3040F00099
:1058A0000000FE121292929292FF9191919110003B
:1058B00080601F80805F4020100E1010205F8000ED
:1058C000202020BEAAAAAAAAAAAAAABE20202000F6
:1058D000008080AFAAAAAAFFAAAAAAAF808000006F
:1058E000202424A4FE23222000F8080808F8000041
:1058F00010080601FF010600003F1010103F0000D5
:10590000807000FF201004040404FC04040404005C
:10591000806018070830000040807F000000000011
:105920004040424458C0407F40C05048464040003C
:105930008080402018070000003F40404040780031
:105940008080848484FE82838280FF8080808000C7
:1059500000804020180700000000FF000000000049
:1059600040484848FF484800C4444444FC00000004
:1059700080601F207F4444404F505050505C400096
:1059800000FE0222DA8690485724A4544C848000FA
:1059900000FF0810080718121212FF12121210004E
:1059A000020202020202FE0202428202020202001D
:1059B000000000000000FF000000000106000000E1
:1059C000000022322AA6A2622111098101000000F2
:1059D000004222130B42827E02020A12234600007A
:1059E0002030AC63300088C8A8998E88A8C8880089
:1059F00022672212128040300F00003F40407100A9
:105A0000000000C080808080808080FC8480808056
:105A1000808080C0C0000000000000FF7F40404048
:105A2000404040FF40404040404040FF7F00000079
:105A300000000000000000000000007F7000000077
:105A40000000000000000000000000000000000056
:105A500000000000000000FCF80000000000000052
:105A6000000000000000000000000000FFFE020235
:105A700002020202020202FFFF020202020202020C
:105A80000202FF0300000000000000001F1F0404CA
:105A900004040404040404FFFF04040404040404D0
:105AA00004041F00000000000000000000000000CF
:105AB000000000000000007F3F0000000000000028
:105AC00000000000000000000000000000000000D6
:105AD00000000000000000000000000000000000C6
